:080000000C10040000000000D8
:04002800F4030000DD
:0400A000DA02000080
:100400003220EF00C3202000008041001040BA00DD
:100410000160EF00000006003132000033410000AF
:100420003435000036420000373800003943000000
:100430002A300000234400003220EF0083222000F5
:10044000008041001040BA000160EF00000006008B
:100450000A0D00004E690000636F00006C20000070
:10046000416E00006F6B0000686900006E0A0000BA
:100470000D0000003220EF006324200000804100C6
:100480001040BA000160EF00000006000A0D0000F5
:10049000413A00002B200000423A00002D200000CD
:1004A000433A00002A200000443A00002F0A0000CE
:1004B0000D0000003220EF00632620000080410084
:1004C0001040BA000160EF00000006000C4E000072
:1004D000696300006F6C0000204100006E6F000037
:1004E0006B680000696E00000A0000003220EF0017
:1004F00023282000008041001040BA000160EF0076
:1005000000000600413A00002B200000423A0000A3
:100510002D200000433A00002A200000443A000049
:100520002F0000003220EF00E3292000008041006E
:100530001040BA000160EF00000006000A650000EC
:10054000727200006F720000000000003220EF00A5
:10055000232B2000008041001040BA000160EF0012
:100560000000060065720000726F0000720000005B
:10057000851F780005B024009E01090000000000DE
:100580008502E90003003A000028EF000000200087
:10059000060037003202AE00F7FF37003202F800E3
:1005A0000008F900B01180003222A900CF027800C3
:1005B000000006004200F8003600F8003200F800A3
:1005C000801F7800200020000C000900B01F780078
:1005D000B80202000000000003E8B7000208A8000B
:1005E00087C0A900A00120000C0009004F1078006E
:1005F0004F0078003200F9003600F9004200F9009F
:1006000000400600851F78006408A9006428A9003E
:100610006668EF006768EF00C882BF00F00FB200A5
:100620000002780000F02000840270004516880067
:100630006428AF00690037003E0609000000000092
:10064000344380006324E10007003A00CA82BF00FF
:10065000F00FB2000002780000F02E0004007000DD
:10066000CAA2B7001C003700344380006224E100B6
:1006700007003A00CA82BF00F00FB2000002780003
:1006800000F02D0004007000CAA2B700120037006D
:10069000344380006124E10007003A00CA82BF00B1
:1006A000F00FB2000002780000F02B000400700090
:1006B000CAA2B700080037006648E20006003A0008
:1006C000CA82BF00F00FB2000002780000F02700DD
:1006D00004007000CAA2B7006408AE000C00370026
:1006E00000F02000CA02B6008002780004F020006A
:1006F0000520E10005003A006408A90065C8BF00B4
:1007000067E8B7006568EF006428A800320037008A
:1007100000F02000CA02B6008002780004F0200039
:100720000520E1002700320000802000CA02B60048
:10073000800278000500E00002003A006868EF00DF
:100740001500370000402000CA02B6008002780081
:100750000500E00003003A0010C0B30068E8B700ED
:100760000D003700551680000520B2000500E0009E
:1007700003003A0020C0B30068E8B7000600370065
:10078000551680000510B2000500E00002003A0096
:1007900030C0B30068E8B70066C8BF000160EF0072
:1007A000C202DD00444380000960EF000480420083
:1007B000000202000000000065E8B7006408A8001D
:1007C000050037006668EC00344380006424E100D3
:1007D00001003A006668EF0095FF370067C8BF0068
:1007E000CF027800000006004200F8003600F80052
:1007F0003200F800801F7800200020000C00090063
:10080000B01F7800020302000000000004E8B700F7
:100810000228A8008400A900A00120000C00090003
:100820004F1078004F0078003200F9003600F900D0
:100830004200F900004006000000E0004220AF0046
:10084000040037007B3E0900000000000000E900C2
:10085000FCFF3A00000006003A08AF000200370033
:10086000CD82A90001003700CD82A8003A28AF0050
:1008700002003700CDA2A90001003700CDA2A800D8
:100880003A48AF0002003700CDC2A900010037008E
:10089000CDC2A8003A68AF0002003700CDE2A9003F
:1008A00001003700CDE2A80000000000C4E2A8006B
:1008B000C0E2A9001E00090000000000C4E2A90077
:1008C000C0E2A90000000600851F78003868EF002C
:1008D0000000EB00CB82AF000000E8003868B700F2
:1008E0000000EB00CBA2AF000000E8000160EF00C9
:1008F0004100DD003868B7000000EB00CBC2AF005C
:100900000000E8000160EF004200DD003868B70039
:100910000000EB00CBE2AF000000E8000160EF0058
:100920004300DD003868B70038C8BF0000E0B700FA
:10093000CF02780000000600851F7800C982A80059
:10094000C9A2A800C9C2A800C9E2A800CD22A80077
:1009500000000000C4E2A800C0E2A90000000000FE
:10096000640402000000000037E8B700C4E2A900F8
:10097000C0E2A90000000000C4E2A800C0E2A90093
:100980000E000900000000006404020000000000E6
:1009900036E8B700C4E2A900C0E2A900C982A900F4
:1009A000C9A2A900C9C2A900C9E2A900B541800035
:1009B000C82ADE00C42ADD0036C8BF000160EF008F
:1009C00000807200CF02780000000600851F7800CA
:1009D000C0E2A900C902A900C922A900CD02A9004C
:1009E0009C04020000000000804278000570A7000F
:1009F000FBFF37003248E20002003A00CD02A900B6
:100A000001003700CD02A80000000000CD22A9009F
:100A100000000000C4E2A900C0E2A90095418000E6
:100A2000C82ADE00C42ADE003A08F800E5FF9F006D
:100A30003A08F9002C0402000000000033C8BF008F
:100A40000160EF00EF0260003A08F800E5FF9F0048
:100A50003A08F9002C04020000000000CF027800E0
:100A600000000600851F780084C2200044418800F1
:100A70001460200054418800C4E2A900C0E2A9002B
:100A8000CD02A900CD22A900C982A900C9A2A9004E
:100A9000C9C2A900C9E2A900C0E2A900C902A9000F
:100AA000C922A900F00020001C0402000000000080
:100AB00010C0B30026E8B700344180006324E10091
:100AC00009003E0030C0B3003AE8B7002C04020031
:100AD00000000000500020001C0402000000000084
:100AE0002668EC00F4FF370020C0B3003AE8B700F6
:100AF0002C04020000000000500020001C04020032
:100B0000000000002668EF00344180006324E1000B
:100B10000D003E00344180000960EF008382200018
:100B200003004200904278003268EF003208F8007B
:100B3000F5FF9F003208F900E60402000000000003
:100B40002668EC00F0FF3700CF02780000000600B6
:100B5000851F7800544180004822DE006124E100B6
:100B60000300320000C4B3002CE8B70001003700D6
:100B70002C68EF00544180000960EF0061005200D2
:100B80002C68B4002CC8BF000160EF0080427800E0
:100B90000508B3003268EF003208F800F5FF9F0047
:100BA0003208F900E604020000000000CF027800DD
:100BB0000000060028C8BF000000FB007080B200E3
:100BC00007003200B080B2000C0032006080B2003A
:100BD000140032002080B200190032001E003700DD
:100BE00010C0B3002AE8B70010C0B3002BE8B7006C
:100BF000A8050200000000001E0037003268EF0068
:100C000010C0B30033E8B700E604020000000000A3
:100C1000FE3C090000000000FF3F0900000000004A
:100C20001400370010C0B3002AE8B70020C0B3009A
:100C30002BE8B700A8050200000000000D003700F7
:100C40003268EF0000C1B30033E8B700E6040200E9
:100C5000000000000700370010C0B30032E8B70002
:100C600028C8BF0033E8B700E60402000000000017
:100C70000000370000000600851F7800C882BF0012
:100C8000F00FB2000002780000F020008402700033
:100C90004516880070C0A80070A0A8007000A800C9
:100CA0006FE0A800CA82BF00F00FB200CAA2B7006E
:100CB000CF027800000006009400A9006E20EF002B
:100CC0007020EF0026C8BF0028E8B700DA05020050
:100CD000000000003C060200000000008400A900A3
:100CE0009400A80000000600881F7800280120005A
:100CF00004000900B81F78008005EB006066B800AA
:100D00000304780087047800FA7F20004200A900DD
:100D10004220A90044C4DE00080465000800E00089
:100D2000710032004200A9004220A900C4CCDE00BC
:100D3000890465000900E0006B003200088444006B
:100D400009B0A70004003700F83FB1006600320088
:100D500065003900030037001A4020008542450035
:100D600061003100878669004200A9004220A90085
:100D7000F300B2000340A000F700B2000740A0005B
:100D8000881F78000124B800002DB8000A0544002F
:100D90008B854C000C80B0000224B8008B05440009
:100DA0000C864C00012CB8000005EB008B054400BC
:100DB0000C864C000A80B0000034B8008B0544005B
:100DC0000C864C000A80B0008005EB000324B800BC
:100DD0000C0644000A854C000B80B000022CB800C1
:100DE0000C0644000A854C000B80B0000134B800AA
:100DF0000C0644000A854C000B80B000003CB80093
:100E00000C0644000A854C000B80B0000C007800F2
:100E10000006EB00032CB8000A0544008B854C004B
:100E20000C80B0000234B8000A0544008B854C00E9
:100E30000C80B0000334B8008B0544000C864C00D5
:100E4000013CB8000A0544008B854C000C80B000C2
:100E5000023CB8008B0544000C864C00033CB800F3
:100E60000C0644008A0078000B0178008C017800A1
:100E7000540020004200A9008381D3000281D300E6
:100E80008180D3000080D3000402E900F9FF3A001A
:100E90004F0478000804E8000103700001003200EC
:100EA0000200370003037100080032000340A7006E
:100EB000060037004200A9000080D2008180D200E5
:100EC0000281D2008381D2000804E9004444DD009D
:100ED00003F0A1000DF0A70003F0A0000340A10063
:100EE00083016C00030037006000B8006001B800A7
:100EF00000003700A8012000040009004F1478000A
:100F00004F04780000000600851F7800C50020000F
:100F100005000900B51F78000304780082037800FB
:100F20000103780080027800830478003B472000AA
:100F3000C499DE00FA7F2000830165008385550097
:100F4000F801B2000840A0000000EB008000EB00B8
:100F50000001EB008001EB004200A9000884D300EF
:100F60008783D3000683D3008582D3008381D30097
:100F70000281D3008180D3000080D3008B05E9007B
:100F8000F5FF3A0009F0A600090037000080EA00EA
:100F90008180EA000281EA008381EA000000E80023
:100FA0000180B0000280B0000380B0000000370074
:100FB0006501200005000900CF127800CF027800FB
:100FC000000006008C1F78008D1F78000004EB00E5
:100FD0008004EB000005EB008005EB000006EB0051
:100FE0008006EB00E8002000090020001000FA0055
:100FF0000C377C000884E900FDFF3B0005046A0013
:1010000002003A0007046B002F0032000004EB00DE
:101010000D0420000D0420004200A9000080D20031
:101020008180D2000281D2008381D2000884D20064
:101030008984D2000A85D2008B85D2000758E1004E
:1010400005003A0006D0E10003003A0005C8E100BF
:1010500001003A0004C0E100050039000404540016
:1010600085845C0006055D0087855D004200A80060
:10107000080F7800190798002A0798003B07980086
:101080004E049000DE0490006E059000FE05900076
:101090000884D2008984D2000A85D2008B85D200D0
:1010A00048079800590798006A0798007B0798003E
:1010B0001E0478009E0490002E059000BE0590004E
:1010C0008D06E900D4FF3A004E009000DE0090004B
:1010D0006E019000FE0190000080FA0000003700D1
:1010E000CF0678004F06780000000600851F7800C4
:1010F000C500200007000900B51F78002A00FA008B
:10110000880220000006EB000C377C000884E90010
:10111000FDFF3B004A1798000900E0000D00320077
:1011200039179800470224000003EB006022B80042
:1011300029179800470224000003EB006022B80042
:101140007406020000000000AE1490008904E9005B
:10115000F7FF3A00BE1490004801200028179800BD
:10116000D71C240056D62C006022B800000F98002F
:10117000110F9800220F9800330F980048012000AB
:101180000817980004002000859E280046302200A1
:1011900077AC2800440F9800550F9800660F980010
:1011A000770F980003F0A600040037004E1490005B
:1011B0000804E90008D0A0004817980003F0A10037
:1011C00084070200000000004E149000BE1490003E
:1011D0000900E0004220AF000844E80048179800EA
:1011E0009E1490008004EB00191798004E0A90009E
:1011F000DE0A90006E0B9000FE0B9000E2070200EA
:10120000000000009E1690000D00A700720037003D
:10121000080F9800190F98002A0F98003B0F9800AC
:101220009E1690000D00A2001D1798000000E0001F
:1012300012003A00BE1490008904E8002E159000B8
:10124000090455000D003200CE1590000B00E0009F
:101250000E0032007F846500080455000100320052
:10126000510031000BF0A7004F0037000BE0A70042
:10127000060037000002200043003700CE15900022
:101280000C0022008B0566004B179800CE159000CD
:101290000BD0A600130037000BD0A100BE149000A5
:1012A0000900E0004220AE008B05E9008005EB005C
:1012B0004B17980000057800811F7800841F780084
:1012C000D0C2B30026E8B7005C06020000000000B0
:1012D0004F027800CF0078000A0078008005EB000C
:1012E0004B179800BE1490002E159000090455006D
:1012F00010003A008005EB004B17980000057800BD
:10130000811F7800841F7800E0C2B30026E8B70090
:101310005C060200000000004F027800CF00780059
:10132000CE1590000C0022008B0566004B1798002C
:101330000A00780001032000CE1590000BD0A60013
:10134000110037000BD0A100BE1490000900E0008E
:101350004220AE008B05E9008005EB004B1798009A
:10136000811F7800841F7800D0C2B30026E8B70040
:101370005C060200000000004F027800CF007800F9
:101380000000EB000103200000804000811F780076
:10139000841F780026E8B7005C0602000000000009
:1013A0004F027800CF007800AE1690008D06E9005D
:1013B000190032002D1798004E089000DE089000AA
:1013C0006E099000FE099000A40020008002EB004E
:1013D0006033B80089FF3700400F9800510F980024
:1013E000620F9800730F9800000278008102780065
:1013F00002037800830378000E0890009E08900096
:101400002E099000BE0990009E1690000D00A200CB
:101410001D17980079FF37000080FA00A501200011
:1014200007000900CF127800CF0278000000060004
:10143000851F7800C500200007000900B51F78004F
:101440002A00FA00880220000006EB000C377C001E
:101450000884E900FDFF3B004A1798000900E000FE
:101460000D00320039179800470224000003EB00FA
:101470006022B80029179800470224000003EB00FF
:101480006022B8007406020000000000AE14900054
:101490008904E900F7FF3A00BE14900048012000DB
:1014A00028179800D71C240056D62C006022B800BC
:1014B000000F9800110F9800220F9800330F98002A
:1014C000480120000817980004002000859E28008D
:1014D0004630220077AC2800440F9800550F980042
:1014E000660F9800770F980003F0A60004003700FD
:1014F0004E1490000804E90008D0A0004817980096
:1015000003F0A10084070200000000004E149000C8
:10151000BE1490000900E0004220AF000844E8003B
:10152000481798009E1490008004EB00191798004B
:101530004E0A9000DE0A90006E0B9000FE0B9000A9
:10154000E2070200000000009E1690000D00A700B8
:1015500062003700080F9800190F98002A0F9800B2
:101560003B0F98009E1690000D00A2001D179800DA
:101570000000E00012003A00BE1490008904E80068
:101580002E159000090455000D003200CE15900074
:101590000B00E0000E0032007F8465000804550057
:1015A00001003200410031000BF0A7003F0037007E
:1015B0000BE0A700060037000002200037003700CC
:1015C000CE1590000C0022008B0566004B1798008A
:1015D000CE1590000BD0A6000F0037000BD0A10055
:1015E000BE1490000900E0004220AE008B05E90027
:1015F0008005EB004B179800000578003302AE0021
:10160000FEFF3700D4022000A41188000A007800F1
:101610008005EB004B179800BE1490002E1590002B
:10162000090455000C003A008005EB004B179800A8
:10163000000578003302AE00FEFF3700E402200010
:10164000A4118800CE1590000C0022008B056600C6
:101650004B1798000A00780001032000CE15900077
:101660000BD0A6000D0037000BD0A100BE149000D7
:101670000900E0004220AE008B05E9008005EB0088
:101680004B1798003302AE00FEFF3700D402200053
:10169000A41188000000EB0001032000008040003E
:1016A0003302AE00FEFF370034A2B700AE16900042
:1016B0008D06E900190032002D1798004E089000A1
:1016C000DE0890006E099000FE099000A400200042
:1016D0008002EB006033B80099FF3700400F98009C
:1016E000510F9800620F9800730F98000002780065
:1016F0008102780002037800830378000E089000CE
:101700009E0890002E099000BE0990009E16900041
:101710000D00A2001D17980089FF37000080FA0015
:10172000A501200007000900CF127800CF02780041
:1017300000000600881F7800891F78008A1F780043
:101740008784690009F0A600060037004200A9005E
:101750004220A90003F0A600340037004200A80090
:1017600032003700FA7F20000304780087047800F5
:1017700044C4DE0008046500C4CCDE0089046500B2
:10178000088554000500320003F0A600270037004A
:101790001000200042E0B600240037000304780067
:1017A00087047800F301B200F701B2000340A10002
:1017B0000740A10003C553000500320008F0A60051
:1017C0001A0037001000200042E0B6001700370072
:1017D000020553000500320008F0A6001300370090
:1017E0001000200042E0B6001000370001855200D2
:1017F0000500320008F0A6000C00370010002000A1
:1018000042E0B60009003700000552000500320032
:1018100008F0A600050037001000200042E0B600E6
:10182000020037004200A900000037004F05780091
:10183000CF0478004F04780000000600851F780070
:10184000C500200003000900B51F780000027800E1
:101850008102780002037800830378000000EB0027
:101860008000EB000001EB008001EB000800A1000C
:1018700007F0A600080037000800A0008783EA00F0
:101880000683EA008582EA000402EA00E0824A0058
:1018900060034B00E0834B008504720002003A00B5
:1018A0008704730015003200394720000340A70069
:1018B0000B0037004200A9000482D2008582D200CA
:1018C0000683D2008783D2000080D2008180D200BC
:1018D0000281D2008381D2008904E900F3FF3A003B
:1018E000C44CDD004200A90009F0A1000340A100A2
:1018F00083816C000800A70003F0A00025012000F0
:1019000003000900CF127800CF0278000000060023
:10191000881F78002801200004000900B81F780003
:10192000080028004300AF0087036C000000E000BF
:1019300007003A000100E00005003A000200E00064
:1019400003003A00FAFF27000A8561004220AE003A
:10195000030578008A856B0003047800870478000B
:1019600007067800FD7F20004220A9004200A90060
:1019700044C4DE00088466000800E000BC003200B9
:101980004220A9004200A900C4CCDE008984660080
:101990000900E000BE0032008006EB004220A900F2
:1019A0004200A9000848E100BA003200C10033003B
:1019B0000D00A1000D10A00008845400F300B20037
:1019C0000340A000F700B2000740A0004803B100A8
:1019D00016003B004803B0004220A9004200A900C5
:1019E0008381D3000281D3008180D3000080D300A3
:1019F0000804E900F8FF3A00140037004803B1007A
:101A00000F003B004803B0004220A9004200A9009B
:101A10008783D3000683D3008582D3000482D3005A
:101A20000804E900F8FF3A001B00370004007800C2
:101A30008500780006017800870178000C866D002B
:101A40000CF0A7000BF0A200790037000BF0A60005
:101A50001F0037000D40A7008C0578000080EA00C9
:101A60008180EA000281EA0083C1EA00F341B2000A
:101A70000000E80005003A008100E80003003A0099
:101A80000201E80001003A008341E8000D40A70090
:101A9000320037000E0037000BF0A6000C003700B4
:101AA0000482EA008582EA000683EA0087C3EA002E
:101AB000F741B2000402E80005003A008502E800A0
:101AC00003003A000603E80001003A008743E800FB
:101AD0004220A9004200A90004004000858048007F
:101AE0000601490087C149000350A7000D30A0003E
:101AF0000D00A700090037000D10A70001003700F6
:101B00000B0037000BF0A700140037000D30A700C2
:101B1000290037000D60A000210037000BF0A7005E
:101B20000E0037000D30A700230037001C003700DF
:101B30000BF0A700040037008A0578000D30A700DD
:101B40001D0037003A0037000D40A00003C1B2006D
:101B50000340A700BFFF37008A057800F301B200F9
:101B60000284710002003A00008470000C00320010
:101B70000340A7000A0037004220A9004200A90044
:101B80000080D2008180D2000281D2008381D20005
:101B90008904E9004220AF0032003700F4FF37002B
:101BA0000D00A7008A0578000D10A7008C057800AD
:101BB0000D50A6001E0037004200A90083C1D300CB
:101BC0000281D3008180D3000080D3004200AF00A7
:101BD0000D50A0008904E8004220AF00210037002A
:101BE0000D50A6000E0037000000E8000C003A007F
:101BF0008100E8000A003A000201E80008003A000B
:101C00008301E80006003A0083C1D3000281D300BB
:101C10008180D3000080D3008904E80011003200E5
:101C20000D00A7008A0578000D10A7008C0578002C
:101C30000102700002003A00030271002600320027
:101C40000340A1004220A9004200A900C44CDD00CD
:101C500083816C0003F0A0000BF0A60003F0A1004C
:101C60001D0037006000B8006011B8001A0037008E
:101C7000080028000AF0A70087036C0085007800A0
:101C80000400780006017800870178001200370010
:101C900011003700F700B2000740A000F300B200C7
:101CA0000340A0000BF0A7000740A1000D20A000FA
:101CB00079FF3700F300B2000340A000F700B20044
:101CC0000740A00009045400890444000D10A1003D
:101CD0000D00A00049FF3700A80120000400090002
:101CE0004F1478004F04780000000600851F78002C
:101CF000861F780003027800030378004200A900E1
:101D000044A2DE00F57F20000482620003003A0056
:101D10006000B8000001EB00130037000438B10088
:101D2000F300B200370020004200A9000080D2007A
:101D30008180D2000281D2008381D2008703E90032
:101D4000F9FF3A0001007800820078000370A100DA
:101D50000480FD004200A9000482D30006F0A70021
:101D600004F0A00003016A004F037800CF0278005E
:101D700000000600851F7800861F78008201780029
:101D8000820278004200A9008381D2000380FD0016
:101D9000F30FB20003003A006000B8006011B80011
:101DA000160037000338B000F207B20036002000FA
:101DB0000002EB004200A9000281D3008180D30021
:101DC0000080D3004200AF000402E8000603E900EF
:101DD000F8FF3A000270A100C419DD0003F0A10071
:101DE00005F0A70003F0A00083016900010178005D
:101DF00080007800810042000000EB004F03780073
:101E0000CF02780000000600881F7800280120001B
:101E100004000900B81F7800878669000304780071
:101E200087047800FA7F20004200A9004220A90020
:101E300044C4DE00080465000800E0006C003200C5
:101E40004200A9004220A900C4CCDE00890465003C
:101E50000900E000660032000005EB0009065400AE
:101E600003003900FC3FB00061003100040037007E
:101E70001B4020000B0656005D0039005C0032005C
:101E80000004EB008004EB000005EB008005EB0094
:101E9000F301B2000340A000F701B2000740A00028
:101EA0008C1F78006C0320000400500085805800CF
:101EB00006015900878159000200330006003100F5
:101EC00006003A00040040008580480006014900F1
:101ED00087814900010037000800A0000C06E900D6
:101EE0000B0032004200A9000080D2008180D200A5
:101EF0000281D2008381D2004200A9000884D2006E
:101F00008984D2000A85D2008B85D200E6FF370093
:101F10004F0678000B50A70001003700060037007D
:101F20004200A9008B85D3000A85D3008984D300A1
:101F30000884D300030037000C06E9004200A90022
:101F40002B0032004200AF00090037000080D200B1
:101F50008180D2000281D2008381D200040250002D
:101F600085825800060359008783590015003900FF
:101F70000804E80013003A008904E80011003A0060
:101F80000A05E8000F003A008B05E8000D003A0052
:101F90000C06E800160032000A0037000C06E900C3
:101FA000130032000B40A700060037004200A900D2
:101FB0000884D2008984D2000A85D2008B85D200A1
:101FC000F8FF37004466DD004200A9000CF0A100D4
:101FD0000DF0A7000CF0A0000B40A1008B016E00DB
:101FE0000A017800890078000800780005003700B1
:101FF000000020000100200002002000030020005B
:1020000000003700A8012000040009004F147800E8
:102010004F047800000006000FF82000F0FF2000B9
:1020200020A0B7000000000081E0A8004427EF00D6
:102030000028EF00040028008411880004402000DC
:10204000941188003062A80024022000C411880086
:102050000208A9000228A9000468EF00E024EF00AC
:10206000E224EF000628EF000828EF000A28EF001E
:102070000C28EF000E28EF001028EF001228EF00C8
:102080001428EF001628EF001828EF001A28EF0098
:102090001C28EF001E28EF002068EF003205020028
:1020A0000000000001002000010078000160EF0046
:1020B0001C020200000000008100E8003302AE00B4
:1020C000FEFF370034A2B700000120000008E60040
:1020D000F5FF370001002000010078000160EF00EB
:1020E0003A020200000000008100E8003302AE0066
:1020F000FEFF370034A2B700200120000008E600F0
:10210000F5FF370001002000010078000160EF00BA
:102110005A020200000000008100E800811F7800E0
:1021200028E8B700DA05020000000000CF007800C0
:10213000E00020000008E600F3FF37000100200067
:10214000010078000160EF0076020200000000004C
:102150008100E800811F780028E8B700DA05020056
:1021600000000000CF007800E00020000008E6003A
:10217000F3FF3700409C20001C0402000000000018
:10218000C0C0B30028E8B700DA0502000000000074
:102190003C060200000000008200A9008400A900A3
:1021A0009400A80081E0A9004220EF0081E0A8008F
:1021B0008200A90097C0A80081E0A9004220EF009A
:1021C00081E0A8000228AF00020037000208AE003C
:1021D000350337000208AE000300370003C8BF0014
:1021E00004E8B7000208A9000228AE000100370089
:1021F0000228A90024408000A4C2B20091013A0044
:10220000144180006220E10020003A00C0C0B30009
:1022100026E8B7005C06020000000000A0C0B30082
:102220003302AE00FEFF370034E2B7003562EF0044
:10223000D0C0B3003302AE00FEFF370034E2B70077
:102240003562EF000468EF000828EF000A28EF006D
:102250000C28EF000E28EF001028EF001228EF00E6
:102260001428EF001628EF000628EF002068EF0082
:102270001828EF001A28EF001C28EF001E28EF0096
:102280002228EF0014002000244188002048E200AA
:1022900035003A00244180006120E1003200320024
:1022A0002408E20030003A00A0C2B3003302AE00BE
:1022B000FEFF370034E2B7003562EF00C0C0B30064
:1022C00026E8B7005C0602000000000000002000C5
:1022D000010020000200200003FF2B00444080008A
:1022E0005540800066408000774080007406020000
:1022F0000000000008A8B700514088006240880034
:10230000734088000888BF00514080006240800010
:1023100073408000290020008A002800760802000F
:10232000000000003302AE00FEFF3700A4002000D2
:10233000A41188003302AE00FEFF3700D400200055
:10234000A41188000888BF005140800062408000CE
:1023500073408000290020008A002800180A02002B
:10236000000000002428EF002048E200180132009D
:10237000A0C2B3003302AE00FEFF370034E2B70064
:102380003562EF00C0C0B30026E8B7005C0602006B
:10239000000000000441800014C4B2003E003A0076
:1023A00000002000010020000200200003FF2B009D
:1023B0008440800095408000A6408000B7408000A7
:1023C000740602000000000010A8B70091408800C9
:1023D000A2408800B34088000888BF0051408000B8
:1023E0006240800073408000290020008A0028009D
:1023F0007608020000000000B0C2B30026E8B70073
:102400005C060200000000001088BF0091408000C0
:10241000A2408000B3408000290020008A002800EC
:1024200076080200000000003302AE00FEFF370015
:10243000A4002000A41188003302AE00FEFF370084
:10244000D4002000A41188000888BF0051408000FB
:102450006240800073408000290020008A0028002C
:10246000180A0200000000003302AE00FEFF370031
:10247000B4022000A41188001088BF0091408000A1
:10248000A2408000B3408000290020008A0028007C
:10249000180A0200000000000441800024C4B200B9
:1024A0003E003A0000002000010020000200200051
:1024B00003FF2B008440800095408000A6408000F0
:1024C000B7408000740602000000000010A8B700AA
:1024D00091408800A2408800B34088000888BF006F
:1024E000514080006240800073408000290020003D
:1024F0008A0028007608020000000000D0C2B30065
:1025000026E8B7005C060200000000001088BF004B
:1025100091408000A2408000B3408000290020004C
:102520008A00280076080200000000003302AE0096
:10253000FEFF3700A4002000A41188003302AE0083
:10254000FEFF3700D4002000A41188000888BF00D7
:1025500051408000624080007340800029002000CC
:102560008A002800180A0200000000003302AE00B2
:10257000FEFF3700D4022000A41188001088BF009D
:1025800091408000A2408000B340800029002000DC
:102590008A002800180A02000000000004418000A0
:1025A00034C4B2003E003A000000200001002000C8
:1025B0000200200003FF2B00844080009540800033
:1025C000A6408000B74080007406020000000000B2
:1025D00010A8B70091408800A2408800B34088004E
:1025E0000888BF0051408000624080007340800036
:1025F000290020008A002800760802000000000060
:10260000A0C2B30026E8B7005C060200000000008C
:102610001088BF0091408000A2408000B34080003D
:10262000290020008A00280076080200000000002F
:102630003302AE00FEFF3700A4002000A411880082
:102640003302AE00FEFF3700D4002000A411880042
:102650000888BF00514080006240800073408000C5
:10266000290020008A002800180A0200000000004B
:102670003302AE00FEFF3700A4022000A411880040
:102680001088BF0091408000A2408000B3408000CD
:10269000290020008A002800180A0200000000001B
:1026A0000441800044C4B20049003A001088BF00D1
:1026B00091408000A2408000B340800004002000D0
:1026C0000500200006002000070020009A0B0200F1
:1026D000000000003E003200000020000100200049
:1026E0000200200003FF2B00844080009540800002
:1026F000A6408000B7408000740602000000000081
:1027000010A8B70091408800A2408800B34088001C
:102710000888BF0051408000624080007340800004
:10272000290020008A00280076080200000000002E
:10273000F0C2B30026E8B7005C060200000000000B
:102740001088BF0091408000A2408000B34080000C
:10275000290020008A0028007608020000000000FE
:102760003302AE00FEFF3700A4002000A411880051
:102770003302AE00FEFF3700D4002000A411880011
:102780000888BF0051408000624080007340800094
:10279000290020008A002800180A0200000000001A
:1027A0003302AE00FEFF3700F4022000A4118800BF
:1027B0001088BF0091408000A2408000B34080009C
:1027C000290020008A002800180A020000000000EA
:1027D000144180006120E10019003A00A0C2B3005A
:1027E0003302AE00FEFF370034E2B7003562EF007F
:1027F000C0C0B30026E8B7005C060200000000007D
:102800000468EF000828EF000A28EF000C28EF000A
:102810000E28EF001028EF001228EF001428EF0018
:102820001628EF000628EF002068EF001828EF00B8
:102830001A28EF001C28EF001E28EF002228EF00C6
:10284000990137002440800003032000041CE100AC
:1028500079003C002440800093032000041CE10028
:102860007500350004C8BF0026E8B7005C0602000A
:102870000000000004C8BF003302AE00FEFF3700B6
:1028800034E2B7003562EF000441800014C4B200A6
:10289000090032000441800024C4B2000600320066
:1028A0000441800034C4B2000300320004418000BF
:1028B00044C4B2002F003A0004C8BF000000FB006F
:1028C0000003B10006A8B7000000200001002000AE
:1028D00002002000430224008440800095408000D4
:1028E000A6408000B740800074060200000000008F
:1028F00080027800010378008203780003047800E6
:102900000688BF008001EB0000F0A7008081EB008B
:1029100083007800030178001E0C02000000000014
:102920004300A900851F7800861F7800871F780064
:1029300000027800050078008102780086007800A7
:10294000020378000701780083037800880178008B
:10295000880C020000000000CF0378004F037800CD
:10296000CF02780010A8B70091408800A2408800EC
:10297000B34088002048E2002F003A0004C8BF009E
:102980000000FB000003B10006A8B7000000200013
:102990000100200002002000430224004440800087
:1029A0005540800066408000774080007406020039
:1029B00000000000800278000103780082037800A4
:1029C000030478000688BF008001EB0000F0A70038
:1029D0008081EB0083007800030178001E0C020068
:1029E000000000004300A900851F7800861F7800C2
:1029F000871F7800000278000500780081027800C7
:102A000086007800020378000701780083037800CD
:102A100088017800880C020000000000CF037800D5
:102A20004F037800CF02780008A8B7005140880013
:102A300062408800734088002440800014C4B200C3
:102A4000090032002440800024C4B2000600320095
:102A50002440800034C4B2000300320024408000CF
:102A600044C4B20033003A0004C8BF0020E8B700F5
:102A700020C8BF000000FB001084B2000500320037
:102A80003080B2000D0032001080B200150032001C
:102A90001E003700B0C2B30026E8B7005C06020093
:102AA00000000000B0C2B3003302AE00FEFF3700EA
:102AB00034E2B7003562EF001E003700D0C2B30029
:102AC00026E8B7005C06020000000000D0C2B30098
:102AD0003302AE00FEFF370034E2B7003562EF008C
:102AE00014003700A0C2B30026E8B7005C0602005D
:102AF00000000000A0C2B3003302AE00FEFF3700AA
:102B000034E2B7003562EF000A003700F0C2B300CC
:102B100026E8B7005C06020000000000F0C2B30027
:102B20003302AE00FEFF370034E2B7003562EF003B
:102B3000000037002440800034C2B200DA003A00BE
:102B4000D0C3B3003302AE00FEFF370034E2B7005B
:102B50003562EF0020C8BF000000FB001084B20007
:102B6000050032003080B200130032001080B20045
:102B700026003200340037004300A9000888BF0057
:102B8000514080006240800073408000844080009B
:102B900095408000A6408000B7408000880C02006D
:102BA0000000000018A8B700D1408800E24088006B
:102BB000F3408800380037000888BF00514080008B
:102BC0006240800073408000760E0200000000002A
:102BD00000002000BA0E0200000000004300A80020
:102BE0008440800095408000A6408000B74080006F
:102BF000880C02000000000018A8B700D14088002F
:102C0000E2408800F3408800230037000888BF00B6
:102C1000514080006240800073408000844080000A
:102C200095408000A6408000B740800074060200F6
:102C30000000000018A8B700D1408800E2408800DA
:102C4000F3408800140037000888BF00514080001E
:102C50006240800073408000760E02000000000099
:102C600000002000BA0E0200000000008440800036
:102C700095408000A6408000B7408000040F02000D
:102C80000000000018A8B700D1408800E24088008A
:102C9000F3408800000037000441800044C4B200C3
:102CA00027003A001088BF0091408000A2408000B9
:102CB000B340800004002000050020000600200032
:102CC000070020009A0B0200000000001C003A00E0
:102CD00001002000010078000160EF009202020074
:102CE000000000008100E800811F780026E8B7009E
:102CF0005C06020000000000CF00780050002000B9
:102D00000008E600F3FF3700010020000100780012
:102D10000160EF00A6020200000000008100E80050
:102D20003302AE00FEFF370034A2B700400020009F
:102D30000008E600F5FF3700140020001441880069
:102D40001888BF00D1408000E2408000F34080003E
:102D500004002000050020000600200007002000DD
:102D60009A0B02000000000017003200A0C0B30060
:102D700026E8B7005C06020000000000D0C3B300E4
:102D800026E8B7005C060200000000001888BF00BB
:102D9000D1408000E2408000F34080002900200004
:102DA0008A002800760802000000000018C8BF0052
:102DB0003302AE00FEFF370034E2B7003562EF00A9
:102DC00024002000144188000888BF005140800082
:102DD0006240800073408000040020000500200055
:102DE00006002000070020009A0B020000000000EF
:102DF0002D0032001088BF0091408000A24080006A
:102E0000B3408000040020000500200006002000E0
:102E1000070020009A0B0200000000002200320090
:102E20001888BF00D1408000E2408000F34080005D
:102E300004002000050020000600200007002000FC
:102E40009A0B02000000000017003A00A0C0B30077
:102E500026E8B7005C06020000000000D0C3B30003
:102E600026E8B7005C060200000000001888BF00DA
:102E7000D1408000E2408000F34080002900200023
:102E80008A002800760802000000000018C8BF0071
:102E90003302AE00FEFF370034E2B7003562EF00C8
:102EA0002400200014418800C6FC37000040FE00CA
:0200000401F009
:100000000F0000FF000000FF030000FFE10000FF01
:100010003B0000FF5F0000FF9C0000FF830000FF2B
:00000001FF
;PIC24FV16KM202
;CRC=22C9  CREATED="01-Oct-19 14:45"
